:02000000E32CEF
:0E000600213083120313FD00FD0B07280800B4
:06001400000000000800DE
:10001A000F3083120313FC004730FD00FD0B132839
:0A002A00FC0B132800000000080082
:08003400FA1FF213003008006E
:0E003C00F201F101F001F801F30100300800BB
:10004A007B15FB1F2F280130F300F201F101F001AB
:08005A00FA0DF20CFF30080062
:06006200FB15FF30080051
:1000680083120313F801F9011030FC00710DF80D2B
:10007800F90D7408F8027508031C750FF9020318C6
:100088004C287408F80775080318750FF90703104A
:0A009800F00DF10DFC0B3A280800F2
:1000A2007B14FB1F5C28F201FA1FFF30F200F10003
:0A00B200F000FA0DF20CFF30080018
:1000BC00FB14FB1F6828FF30F300F200F100F00086
:0800CC00FA0DF20CFF300800F0
:1000D40083120313D71B7028881271288816571BA4
:1000E4007528081276280816D71A7A2888117B28CA
:1000F4008815571A7F280811802808154418842861
:1001040008148528081088140A208810D7198C2808
:1001140088128D28881657199128081292280816D3
:10012400D718962888119728881557189B280811DE
:100134009C2808154418A0280814A128081088141D
:100144000A208810441CA8280D20A9280320080090
:10015400A0017208031DBF287108F2007008F100A5
:10016400F001A0157208031DBF287108F200F10107
:10017400A011201672080319CD282008F302031DCC
:10018400031CD1280310F21BD528F00DF10DF20D3C
:10019400F30BC528D1280130FC001E20D8280230DA
:0E01A400FC002520D8280430FC001A2008009A
:1001B20083120313D501053055020318E7285508A9
:1001C2005407840020308000D50ADC2855085407E3
:1001D20084008001D50355085407D6000A30F40084
:1001E200F5015208F0005308F10034207808F000BD
:1001F2007908F1003030F00756088400700880005A
:100202000A30F400F5015208F0005308F1003420DE
:100212007008D2007108D30000307106031D132943
:1002220000307006031D16291829D503EC28080092
:100232008312031344105208D7006A2044140800A2
:1002420083120313D401D501D401D50153085502F9
:10025200031D2D29520854020318352900000000FD
:0A026200D40A0319D50A2729080061
:10026C00831203137008F8007108F000F101F20119
:10027C00F301FB01FC019630F300FA01F01F4C294D
:10028C00F809F009F80A0319F00AFA177008F100D6
:0C029C007808F000F801F201AA20080028
:1002A80083120313FB017308031991297208FA00DA
:1002B800F2178E30F302F31F9429F309F30A08307A
:1002C8007302031C7729F300F10D7208F100F201A3
:1002D80008307302031C7729F300F10DF10173084C
:1002E800031D03107F29730803197F290310F20CDB
:1002F800F10CF30B7A297B1B711C8929031C8929B2
:10030800F10A0319F20AF21BA029FA1FA329F2091C
:10031800F109F10A0319F20AA329F201F101A3294B
:100328007B14FB1FA629F201FA1FA629FF30F20051
:10033800F100FA0DF20CA6290130FC00A8290030C2
:10034800FC00A829FF30FC00FC080319AC29512047
:0A0358007108F0007208F1000800BF
:10036200831203137408003A031DCC297508003A5E
:10037200031DCC297608003A031DCC297708003AE0
:10038200031DCC29FF30F000FF30F1007F30F20076
:10039200FF30F300672A83120313770803195B2ADD
:1003A200730803195E2A720876068039FA00F2177A
:1003B200F617A0017208F8007108FC007008FD0031
:1003C2007408FD027508031C750FFC027608031CF5
:1003D200760FF802F801FC01FD01031CF729031056
:1003E200F20CF10CF00CF80C0130A0007708F302CB
:1003F200031C012A7E302007F3070318612A062A0C
:100402007E302007F307031C642A1830FA07FD0D1B
:10041200FC0DF80DF00DF10DF20DA00D7408F002B7
:100422007508031C750FF1027608031C760FF202A1
:10043200760DA004201C1F2A7D142A2A7408F007B6
:1004420075080318750FF10776080318760AF20784
:100452007D10FA031F307A05031D082A7B1B7D1CC1
:10046200512A0310F00DF10DF20DA00D7408F002E7
:100472007508031C750FF1027608031C760FF20251
:10048200760D20040139FD070318FC0A0319F80A46
:10049200031D512AF80CFC0CFD0CF30A0319612A06
:1004A200FA1FF8137808F2007C08F1007D08F000CA
:1004B2000030662A01303120662A02301E20662A68
:0E04C20004305E20662A083025200000080065
:0E04D0008312031346088A00450882000800C4
:1004DE0083120313FB017308031D77080319C62A41
:1004EE0072087606FA007708F3077E30031C832A1B
:1004FE00F3020318C92A862AF302031CCC2A7208B7
:10050E00F8007108FC007008FD00F817F6170310CC
:10051E00F201F101F0011830A0007D1CA02A740830
:10052E00F00775080318750FF10776080318760F94
:10053E00F207F20CF10CF00CF80CFC0CFD0C031095
:10054E00A00B942AF21BB02AF80DF00DF10DF20D4E
:10055E00F3037B1B701CC22AF81FC22AF00A031970
:10056E00F10A0319F20A031DC22AF20CF10CF00C67
:10057E00F30A0319C92AFA1FF2130030CE2A0130EA
:10058E001E20CE2A02305E20CE2A04302520000006
:02059E00080053
:1005A00083120313CE01CF014908D0004A08D100BD
:1005B00080304A06F00080307002031DE12A0030CE
:1005C00049020318EF2A0130CE000030CF0049085D
:1005D000003CD0004A08031C013ED101D102500862
:1005E000D2005108D3004B08D400D9200630CC00EB
:1005F0000030CD004D08003C031D002B4C08003C92
:1006000003181B2B4C084B07F20001304C02F00082
:100610000030031C013E4D02F10070084B078400BE
:100620000008F00072088400700880000130CC02DD
:10063000031CCD03FA2A4B088400203080004E08AA
:100640004F040319392BCC01CD014C084B07840012
:100650000008203A031D302BCC0A0319CD0A252BA4
:100660000130CC02031CCD034C084B0784002D3015
:0406700080000800FE
:10067400831203131F151F1D402B3D2B1E08F10071
:0E068400F00183161E08F0040030F104080097
:10069200831203138E018F0106140A30D200003038
:1006A200D3002121FE3086058618582B552B193090
:1006B2009000861C5D2B5A2B183090000F08F10019
:1006C200F0010E08F0040030F10436219630F400F7
:1006D2004330F5000B30F6007A30F7006F2200301D
:1006E200F4000030F5000030F6008030F700B12150
:0406F2005421080087
:1006F60083120313CA01CB014908F2004908F3002B
:10070600720884000008203A031D8E2B4A084B0409
:10071600031D8E2B9B2B0130CA000030CB007208C4
:1007260084000008F0007308840070088000F30A53
:100736007208F100F20A710884000008003A031DED
:08074600832B4908F0000800B4
:10074E00831203137008F8007108F000F101F20132
:10075E00F301FB01FC019630F300FA017008F10081
:0C076E007808F000F801F201AA20080051
:10077A00CF2B803083120313C900E22BC030C9008B
:10078A00E22B9430C900E22BD430C900E22B80302E
:10079A00C900E22B831203134908013A0319BE2B3D
:1007AA004908023A0319C32B4908033A0319C62B0D
:1007BA004908043A0319C92BCC2B4A03F00049080B
:1007CA00F0077008C9007008D7006A204410CC01ED
:1007DA004C084B07840000080319FB2B4C084B07F5
:1007EA0084000008D2001921CC0AED2B4414080019
:1007FA0083120313CB01CC01CD01CE01CB01CC0175
:10080A004A084C02031D0B2C49084B0203181F2CE3
:10081A00CD01CE0100304E02031D152C9B304D0236
:10082A0003181B2CCD0A0319CE0A0F2CCB0A031965
:06083A00CC0A052C0800A9
:1008400083160313881008100811881108128812E3
:1008500083128810081088120812881108110D20C0
:100860000D200D208815081588140A2088100D20E9
:1008700088140A2088100D2088140A2088100D2062
:10088000081188140A2088100D2088140A20881066
:100890008811881688140A2088100D2088120815DF
:1008A00088140A208810081188140A2088100D2046
:1008B00088140A208810081588140A2088100D2032
:1008C000081188140A20881088160816881508153B
:0C08D00088140A2088100D204414080031
:1008DC004130831203139F00C03083169F00FF30FA
:0408EC00850008007B
:1008F00083120313FB01FC01FA0173080319B72CDF
:10090000F2178E30F302F31B882C0319882CBA2CB3
:10091000F309F30A08307302031C9D2CF300F10D58
:100920007208F100F20108307302031C9D2CF10DD6
:10093000F1017308031D0310A52C73080319A52CDE
:100940000310F20CF10CF30BA02C7B1B711CAF2CD1
:10095000031CAF2CF10A0319F20AF21BC62CFA1F72
:10096000C92CF209F109F10A0319F20AC92CF201A2
:10097000F101C92C7B14FB1FCC2CF201FA1FCC2CEB
:10098000FF30F200F100FA0DF20CCC2C0130FC002B
:10099000CE2C0030FC00CE2CFF30FC00FC080319EC
:0E09A000D22C51207108F0007208F1000800FE
:1009AE0068228A110A128000840AC50A0319C60A2F
:0809BE00F003031DD72C080013
:1009C600203083120313A1005330A2006D30A30020
:1009D6006130A4007230A5007430A6002030A70054
:1009E6005730A8006130A9007430AA006530AB000A
:1009F6007230AC00AD015430AE006130AF006E30E5
:100A0600B0006B30B100B2015430B3006530B400B1
:100A16006D30B5007030B6002030B7003D30B800FC
:100A26002030B900BA01C701C8010230831686001A
:100A3600831286018E018F0190016E24831290012C
:100A46002024FA30C900CA01FD230130C900013053
:100A5600CA002130CB00BD230230C9000230CA00D3
:100A66002E30CB00BD238030C9000C30CA00FD23D8
:100A76000130D7006A2049237008C7007108C800F2
:100A860080307106F20080307202031D4C2D143046
:100A96007002031C532D30308604F3308605A32DD7
:100AA6008030F000803048067002031D5C2D470838
:100AB600023C031C6E2D80304806F0008030700228
:100AC600031D672D00304702031C6E2D1C30860463
:100AD600DF308605A32D80304806F0008030700296
:100AE600031D772D0D304702031C892D8030F00041
:100AF600803048067002031D822D4708133C031CF4
:100B0600892D18308604DB308605A32D80304806F3
:100B1600F00080307002031D922D02304702031C44
:100B2600A32D8030F000803048067002031D9D2DF5
:100B360047080C3C031CA32D1C308604DF308605B9
:100B46003A2370088312BB007108BC00A723E33068
:100B5600F4003630F5007A30F6007D30F7006F226B
:100B660078247008BB007108BC007008C9007108C1
:100B7600CA003D30CB00D0223D30C9007B23143063
:100B8600C9000030CA00FD230130D7006A200130B9
:100B9600C9000130CA003330CB00BD230130C90083
:100BA6000830CA003D30CB00BD232030C9000330D9
:0E0BB600CA00FD230130D7006A203E2DE12D3C
:02400E004A2F37
:00000001FF
