:020000004D2988
:10000800FF00030E8301B5000A08B4008A017008D6
:10001800A3007108A2007208A1000B1D2A28F8305D
:100028008100AC0A0319AD0A2D08013A031D1E28E8
:10003800F4302C06031D2828AC01AD0107217008F7
:100048008312B2007108B300FB308B052308F0005F
:100058002208F1002108F20034088A00350E8300D6
:06006800FF0E7F0E0900EF
:08006E00FA1FF2130030080034
:100076007B15FB1F45280130F300F201F101F00169
:08008600FA0DF20CFF30080036
:0E008E00F201F101F001F801F3010030080069
:0E009C00831203132F088A002E08820008002A
:1000AA00A0017208031D6A287108F2007008F100A5
:1000BA00F001A0157208031D6A287108F200F10107
:1000CA00A01120167208031978282008F302031DCC
:1000DA00031C7C280310F21B8028F00DF10DF20D91
:1000EA00F30B70287C280130FC004720832802305B
:0E00FA00FC003B2083280430FC003720080067
:1001080083120313FA017308031D7A147708031D79
:10011800FA147A080319D028033A03199B287A1885
:100128009828F61FCE28CC28F21FCC28CE28720893
:100138008039FA00F21376088039F6137A06031923
:10014800A9287A080319CC28CE287708730203193E
:10015800B028031CC428C828760872020319B728D7
:10016800031CC428C828750871020319BE28031C7B
:10017800C428C828740870020319D0280318C8288E
:10018800FA080319CE28CC28FA080319CC28CE2857
:1001980003140800031008000314031508000800DE
:1001A800831203137008F8007108F000F101F201DE
:1001B800F301FB01FC019630F300FA017008F1002D
:0C01C8007808F000F801F2015520080052
:1001D40083120313F801F9011030FC00710DF80DBE
:1001E400F90D7408F8027508031C750FF902031859
:1001F40002297408F80775080318750FF907031026
:0A020400F00DF10DFC0BF0280800CE
:10020E00831203131F151F1D0D290A291E08F10045
:0E021E00F00183161E08F0040030F104080001
:10022C0083120313FB01FA01F9018030F800F10C81
:10023C00F00C031C2A297408F90775080318750FAC
:10024C00FA070318FB0A0310F01F32297408FA0787
:10025C0075080318750FFB07FB0CFA0CF90CF80C5E
:10026C00031C1D297B08F3007A08F2007908F100C1
:06027C007808F000080004
:100282004E208A110A128000840AAE0A0319AF0AAC
:08029200F003031D41290800DF
:10029A00483083120313A400E130A5003A30A600C7
:1002AA007F30A7005230A800B830A9001E30AA003B
:1002BA007F30AB0083160514CE309F004130831285
:1002CA009F00A0308B00FE30831686058312320809
:1002DA00F0003308F1000530F4000030F500162173
:1002EA00FF30F4000330F500EA207008B00071080E
:1002FA00B1003208F0003308F100D4207008F4008D
:10030A007108F5007208F6007308F7002408F00077
:10031A002508F1002608F2002708F300842001309E
:10032A0003180030F0007008031DB1293208F000EC
:10033A003308F100D4202808F4002908F5002A0817
:10034A00F6002B08F7008420013003180030F00073
:10035A007008031DB129B3290614B529FE30860594
:04036A006B29B6291C
:02400E004A2F37
:00000001FF
