:020000001929BC
:08000600FA1FF213003008009C
:0E000E00F201F101F001F801F30100300800E9
:10001C007B15FB1F18280130F300F201F101F001F0
:08002C00FA0DF20CFF30080090
:10003400A0017208031D2F287108F2007008F10056
:10004400F001A0157208031D2F287108F200F101B8
:10005400A0112016720803193D282008F302031D7D
:10006400031C41280310F21B4528F00DF10DF20D7D
:10007400F30B352841280130FC00072048280230C2
:0E008400FC000E2048280430FC000320080079
:0E009200831203132C088A002B08820008003A
:1000A000831203131F151F1D562853281E08F10025
:0E00B000F00183161E08F0040030F104080071
:1000BE00831203137008F8007108F000F101F201C9
:1000CE00F301FB01FC019630F300FA017008F10018
:0C00DE007808F000F801F2011A20080078
:1000EA0083120313F801F9011030FC00710DF80DA9
:1000FA00F90D7408F8027508031C750FF902031844
:10010A008D287408F80775080318750FF907031086
:0A011A00F00DF10DFC0B7B2808002E
:1001240083120313FA017308031D7A147708031D5D
:10013400FA147A080319DE28033A0319A9287A184D
:10014400A628F61FDC28DA28F21FDA28DC28720831
:100154008039FA00F21376088039F6137A06031907
:10016400B7287A080319DA28DC28770873020319F8
:10017400BE28031CD228D628760872020319C52883
:10018400031CD228D628750871020319CC28031C35
:10019400D228D628740870020319DE280318D6283A
:1001A400FA080319DC28DA28FA080319DA28DC2803
:1001B40003140800031008000314031508000800C2
:1001C40049208A110A128000840AAB0A0319AC0A76
:0801D400F003031DE2280800FE
:1001DC0083120313FB01FA01F9018030F800F10CD2
:1001EC00F00C031C02297408F90775080318750F25
:1001FC00FA070318FB0A0310F01F0A297408FA0700
:10020C0075080318750FFB07FB0CFA0CF90CF80CAE
:10021C00031CF5287B08F3007A08F2007908F1003A
:06022C007808F000080054
:10023200483083120313A100E130A2003A30A30038
:100242007F30A4005230A500B830A6001E30A700AF
:100252007F30A80083160514CE309F0041308312F0
:100262009F00FE3083168605502070088312AD0071
:100272007108AE000230FB000430FC00BA30FD0011
:10028200FD0B4129FC0B4129FB0B412900002D08E4
:10029200F0002E08F1000530F4000030F500EE20E9
:1002A200FF30F4000330F50075207008A9007108D2
:1002B200AA002D08F0002E08F1005F207008F4005B
:1002C2007108F5007208F6007308F7002108F000C3
:1002D2002208F1002308F2002408F30092200130E2
:1002E20003180030F0007008031D8D292D08F0005E
:1002F2002E08F1005F202508F4002608F5002708E3
:10030200F6002808F7009220013003180030F000B0
:100312007008031D8D298F2906149129FE30860548
:0403220035299229BE
:02400E004A2F37
:00000001FF
